S01000006361725F746573742E73726563BF
S11300000EC01DC01CC01BC05EC019C018C017C0E4
S113001016C015C014C013C012C011C010C01124E2
S11300201FBECFE5D2E0DEBFCDBF20E0A0E6B0E04A
S113003001C01D92A236B207E1F702D07BC0E0CF27
S1130040B89ABA9ABB9AB9984FD0F12CDF2D0AE02E
S113005011E08AB58F778ABDCD2F18C080916000DA
S113006080936100C11103C0D0936000C12F83E06D
S113007090E04AD0C29A809160008A3038F0C298E9
S1130080B199FECF00936100D0936000B199E6CF9F
S1130090C130F9F683E090E037D0F09260000DC0F3
S11300A0C298C39A80916000882339F080916100DE
S11300B0815080936100F0926000809161008823F8
S11300C07CF7C398C6CF1F920F920FB60F921124DC
S11300D08F93809160008F5F809360008F910F9069
S11300E00FBE0F901F90189580E58EBD80B781607C
S11300F080BF80B7826080BF80B7886080BF7894FB
S113010089B7846089BF0895B89A9AB591609ABDF9
S11301109AB592609ABD8295880F880F807C89BDBC
S113012083B7816083BF83B7846083BF8AB58068E7
S10B01308ABD0895F894FFCF85
S9030000FC
